:02000000E828EE
:08000800080082070E341134D8
:1000100011341134113411340E3404340C340434DA
:100020000434043404340E340E34113401340234F4
:10003000043408341F340E341134013406340134CE
:1000400011340E34023406340A3412341F340234AC
:1000500002341F3410341E340134013411340E3490
:100060000E34113410340E34113411340E341F3464
:100070000134013402340234043404340E341134B3
:1000800011340E34113411340E340E341134113451
:100090000F34013411340E34003400340834043485
:1000A00002340034003402340434083400340034A0
:1000B000003400340034003400340E341134113470
:1000C0001F341134113411341F34113411341134EC
:1000D0001134113411340E341E34113411341134EE
:1000E000113411341E34113411341E3411341134CE
:1000F0001E341034103410341034103410341F34C3
:10010000103410341C34103410341F3410341034B4
:100110001C341034103410340134013401340134EF
:10012000013411340E3411341034133411341134B9
:100130000E34113411341134153413340E34113497
:1001400010340E34013411340E34113410341034A0
:10015000103411340E3404340434043404340434BC
:100160000E3411341234143418341434123411345B
:100170001B3415341134113411341134193415343D
:1001800013341134113411340A3404340434043473
:100190001E34113411341E3411341134113411341D
:1001A00011340A3404340A34113411341134113442
:1001B00015341B3411341F34013402340434083430
:1001C00010341F3404340434043404340434043448
:1001D00083161E308500C03086008113831295017E
:1001E00094019301920191018F010510F7280430C9
:1001F0008D0008308C008C0BFB28051400000510C6
:1002000000008D0BF92808308C008C0B05290000AC
:100210000514000005100000051404301018033008
:100220008D0008308C008C0B13290510000005147C
:1002300000008D0B1129A40108308C008C0B1E29A5
:1002400005102930FA210510C2220510E7220510F9
:10025000102205100F30FA2105104D2305104D23F3
:1002600005104D2305104D2305104D2305104D237A
:1002700005104D2305104D2305104D2305104D236A
:1002800005104D2305104D2305104D2305104D235A
:1002900005104D2305104D2305104D2305104D234A
:1002A00005104D2305104D2305104D2305104D233A
:1002B00005104D2305104D2305104D2305104D232A
:1002C00005104D2305104D2305104D2305104D231A
:1002D00005104D2305104D2305104D2305104D230A
:1002E00005104D2305104D2305104D2305104D23FA
:1002F00005104D2305104D2305104D2305104D23EA
:1003000005104D2305104D2305104D2305104D23D9
:1003100005104D2305104D2305104D2305104D23C9
:1003200005104D2305104D2305104D2305104D23B9
:1003300005104D2305104D2305104D2305104D23A9
:1003400005104D2305104D2305100E30FA21051020
:100350006D2305101F23051010220510900ACE30C2
:1003600010070514031890010318950A03180000DC
:10037000C4301507031895010318940AF6301407C2
:10038000031894010318930AFA3013070318930112
:100390000318920AF6301207031892010318910A03
:1003A000120811180A3E9118FC3E03189201031816
:1003B000910106308C008C0BDB2905103130FA21BD
:1003C0000510000005140430101C05308D000830A5
:1003D0008C008C0BE92905100000051400008D0B22
:1003E000E72907308C008C0BF329F629F52800004B
:1003F00000000800FF3E05148D00FE2911308C001E
:100400008C0B002A0000042A0510F92105148D0B1D
:10041000FE29000011308C008C0B0C2A0000080013
:10042000112A051413308C008C0B142A051002308D
:10043000FA210510012305108B2205108B220510CF
:100440008B2205108B2205108B2205108B220510A4
:100450008B220510012305108B2205108B2205101D
:100460008B2205108B2205108B2205108B22051084
:100470008B220510012305108B2205108B220510FD
:100480008B2205108B2205108B2205108B22051064
:100490008B220510012305108B2205108B220510DD
:1004A0008B2205108B2205108B2205108B22051044
:1004B0008B220510012305108B2205108B220510BD
:1004C0008B2205108B2205108B2205108B22051024
:1004D0008B220510012305108B2205108B2205109D
:1004E0008B2205108B2205108B2205108B22051004
:1004F0008B220510012305108B2205108B2205107D
:100500008B2205108B2205108B2205108B220510E3
:100510008B2205108B2A25081C0705140520A30033
:100520001D088600860D860D860D860D86011E0827
:100530008600860D860D860D860D86011F088600B5
:10054000860D860D860D860D860120088600860D97
:10055000860D860D860D860121088600860D860D86
:10056000860D860D860122088600860D860D860D75
:10057000860D860123088600860D860D860D860D64
:1005800086010800C32A0514100801390319CD2A71
:1005900010308F070319A60ACF2AF9210000033073
:1005A0008A002608A0239600A60A2608A023970002
:1005B000A60A2608A0239800A60A2608A0239900C8
:1005C000A60A02308C008C0BE32A00000800E82AFF
:1005D00005142608A0239A00A60A2608A0239B003B
:1005E000A60A2608A0239C0007308C008C0BF62A54
:1005F000FA30A6072608EB3E0318A6018A01A401DB
:1006000008002408A500051400002408160705208A
:100610009D002408170705209E00240818070520C0
:100620009F00240819070520A00024081A070520A8
:10063000A10024081B070520A200A40A0800202B03
:10064000051403105030960011089700970D970D70
:1006500097079707970712089800980D980D980725
:100660009807980746301518053E990013089A0018
:100670009A0D9A0D9A079A079A0714089B009B0DEA
:100680009B0D9B079B079B0750309C0005308C00FF
:100690008C0B482B4B2BA40108004E2B051410305B
:1006A000650001308500F921F92103308500F92129
:1006B00005308500F92107308500F92109308500D2
:1006C000F9210B308500F9210D308500F9210F301B
:1006D0008500F9211E30650008006E2B0514060800
:1006E000FF3AC03903197D2B8E0F7F2B861B940A8E
:1006F000061B920AEC308E00812BEC308E00F92123
:0C070000F9210D308C008C0B832B0800BD
:1007400082075034503450345034503450346C3468
:100750005734DB349E3450346F34A4349E346634C2
:10076000C23479345734B134503450345034503466
:0A07700050345034503450345034EB
:00000001FF
